{
  "contractName": "LoanManager",
  "abi": [
    {
      "anonymous": false,
      "inputs": [
        {
          "indexed": true,
          "internalType": "uint256",
          "name": "loanId",
          "type": "uint256"
        }
      ],
      "name": "LoanApproved",
      "type": "event"
    },
    {
      "anonymous": false,
      "inputs": [
        {
          "indexed": true,
          "internalType": "address",
          "name": "borrower",
          "type": "address"
        },
        {
          "indexed": false,
          "internalType": "uint256",
          "name": "amount",
          "type": "uint256"
        }
      ],
      "name": "LoanRepaid",
      "type": "event"
    },
    {
      "anonymous": false,
      "inputs": [
        {
          "indexed": true,
          "internalType": "address",
          "name": "borrower",
          "type": "address"
        },
        {
          "indexed": false,
          "internalType": "uint256",
          "name": "principal",
          "type": "uint256"
        },
        {
          "indexed": false,
          "internalType": "uint256",
          "name": "interestRate",
          "type": "uint256"
        }
      ],
      "name": "LoanRequested",
      "type": "event"
    },
    {
      "inputs": [],
      "name": "loanCount",
      "outputs": [
        {
          "internalType": "uint256",
          "name": "",
          "type": "uint256"
        }
      ],
      "stateMutability": "view",
      "type": "function"
    },
    {
      "inputs": [
        {
          "internalType": "uint256",
          "name": "",
          "type": "uint256"
        }
      ],
      "name": "loans",
      "outputs": [
        {
          "internalType": "address",
          "name": "borrower",
          "type": "address"
        },
        {
          "internalType": "uint256",
          "name": "principal",
          "type": "uint256"
        },
        {
          "internalType": "uint256",
          "name": "interestRate",
          "type": "uint256"
        },
        {
          "internalType": "bool",
          "name": "isPaid",
          "type": "bool"
        }
      ],
      "stateMutability": "view",
      "type": "function"
    },
    {
      "inputs": [
        {
          "internalType": "address",
          "name": "",
          "type": "address"
        }
      ],
      "name": "totalDebt",
      "outputs": [
        {
          "internalType": "uint256",
          "name": "",
          "type": "uint256"
        }
      ],
      "stateMutability": "view",
      "type": "function"
    },
    {
      "inputs": [
        {
          "internalType": "uint256",
          "name": "_principal",
          "type": "uint256"
        },
        {
          "internalType": "uint256",
          "name": "_interestRate",
          "type": "uint256"
        }
      ],
      "name": "requestLoan",
      "outputs": [],
      "stateMutability": "nonpayable",
      "type": "function"
    },
    {
      "inputs": [
        {
          "internalType": "uint256",
          "name": "_loanId",
          "type": "uint256"
        }
      ],
      "name": "approveLoan",
      "outputs": [],
      "stateMutability": "nonpayable",
      "type": "function"
    },
    {
      "inputs": [
        {
          "internalType": "uint256",
          "name": "_loanId",
          "type": "uint256"
        }
      ],
      "name": "repayLoan",
      "outputs": [],
      "stateMutability": "payable",
      "type": "function"
    }
  ],
  "bytecode": "0x608060405234801561000f575f80fd5b50610c208061001d5f395ff3fe608060405260043610610054575f3560e01c80631ff517ff14610058578063aa452fa614610094578063aadc1ac1146100bc578063ab7b1c89146100e4578063ce63094d14610100578063e1ec3c681461012a575b5f80fd5b348015610063575f80fd5b5061007e6004803603810190610079919061071a565b610169565b60405161008b919061075d565b60405180910390f35b34801561009f575f80fd5b506100ba60048036038101906100b591906107a0565b61017d565b005b3480156100c7575f80fd5b506100e260048036038101906100dd91906107de565b610300565b005b6100fe60048036038101906100f991906107de565b610431565b005b34801561010b575f80fd5b5061011461065f565b604051610121919061075d565b60405180910390f35b348015610135575f80fd5b50610150600480360381019061014b91906107de565b610665565b6040516101609493929190610832565b60405180910390f35b5f602052805f5260405f205f915090505481565b60405180608001604052803373ffffffffffffffffffffffffffffffffffffffff1681526020018381526020018281526020015f151581525060015f60025481526020019081526020015f205f820151815f015f6101000a81548173ffffffffffffffffffffffffffffffffffffffff021916908373ffffffffffffffffffffffffffffffffffffffff16021790555060208201518160010155604082015181600201556060820151816003015f6101000a81548160ff021916908315150217905550905050815f803373ffffffffffffffffffffffffffffffffffffffff1673ffffffffffffffffffffffffffffffffffffffff1681526020019081526020015f205f82825461028e91906108a2565b925050819055503373ffffffffffffffffffffffffffffffffffffffff167f7468760830aff5679376e50470c0493d21c88c599388e89b08c9512b3f3fbc7d83836040516102dd9291906108d5565b60405180910390a260025f8154809291906102f7906108fc565b91905055505050565b5f73ffffffffffffffffffffffffffffffffffffffff1660015f8381526020019081526020015f205f015f9054906101000a900473ffffffffffffffffffffffffffffffffffffffff1673ffffffffffffffffffffffffffffffffffffffff16036103a0576040517f08c379a00000000000000000000000000000000000000000000000000000000081526004016103979061099d565b60405180910390fd5b60015f8281526020019081526020015f206003015f9054906101000a900460ff1615610401576040517f08c379a00000000000000000000000000000000000000000000000000000000081526004016103f890610a05565b60405180910390fd5b807f073e754af3e7d644af8000094f3c23bc20ef9c40cc057bffa060b0230adf00f460405160405180910390a250565b5f60015f8381526020019081526020015f209050805f015f9054906101000a900473ffffffffffffffffffffffffffffffffffffffff1673ffffffffffffffffffffffffffffffffffffffff163373ffffffffffffffffffffffffffffffffffffffff16146104d5576040517f08c379a00000000000000000000000000000000000000000000000000000000081526004016104cc90610a6d565b60405180910390fd5b806003015f9054906101000a900460ff1615610526576040517f08c379a000000000000000000000000000000000000000000000000000000000815260040161051d90610a05565b60405180910390fd5b60648160020154826001015461053c9190610a8b565b6105469190610af9565b816001015461055591906108a2565b341015610597576040517f08c379a000000000000000000000000000000000000000000000000000000000815260040161058e90610b99565b60405180910390fd5b6001816003015f6101000a81548160ff02191690831515021790555080600101545f803373ffffffffffffffffffffffffffffffffffffffff1673ffffffffffffffffffffffffffffffffffffffff1681526020019081526020015f205f8282546106029190610bb7565b925050819055503373ffffffffffffffffffffffffffffffffffffffff167fc200a1f31dd659e356e0f112c82558e25f49f7b0f84438691cd96f5cb35588238260010154604051610653919061075d565b60405180910390a25050565b60025481565b6001602052805f5260405f205f91509050805f015f9054906101000a900473ffffffffffffffffffffffffffffffffffffffff1690806001015490806002015490806003015f9054906101000a900460ff16905084565b5f80fd5b5f73ffffffffffffffffffffffffffffffffffffffff82169050919050565b5f6106e9826106c0565b9050919050565b6106f9816106df565b8114610703575f80fd5b50565b5f81359050610714816106f0565b92915050565b5f6020828403121561072f5761072e6106bc565b5b5f61073c84828501610706565b91505092915050565b5f819050919050565b61075781610745565b82525050565b5f6020820190506107705f83018461074e565b92915050565b61077f81610745565b8114610789575f80fd5b50565b5f8135905061079a81610776565b92915050565b5f80604083850312156107b6576107b56106bc565b5b5f6107c38582860161078c565b92505060206107d48582860161078c565b9150509250929050565b5f602082840312156107f3576107f26106bc565b5b5f6108008482850161078c565b91505092915050565b610812816106df565b82525050565b5f8115159050919050565b61082c81610818565b82525050565b5f6080820190506108455f830187610809565b610852602083018661074e565b61085f604083018561074e565b61086c6060830184610823565b95945050505050565b7f4e487b71000000000000000000000000000000000000000000000000000000005f52601160045260245ffd5b5f6108ac82610745565b91506108b783610745565b92508282019050808211156108cf576108ce610875565b5b92915050565b5f6040820190506108e85f83018561074e565b6108f5602083018461074e565b9392505050565b5f61090682610745565b91507fffffffffffffffffffffffffffffffffffffffffffffffffffffffffffffffff820361093857610937610875565b5b600182019050919050565b5f82825260208201905092915050565b7f496e76616c6964206c6f616e2049442e000000000000000000000000000000005f82015250565b5f610987601083610943565b915061099282610953565b602082019050919050565b5f6020820190508181035f8301526109b48161097b565b9050919050565b7f4c6f616e20616c726561647920706169642e00000000000000000000000000005f82015250565b5f6109ef601283610943565b91506109fa826109bb565b602082019050919050565b5f6020820190508181035f830152610a1c816109e3565b9050919050565b7f4f6e6c792074686520626f72726f7765722063616e2072657061792e000000005f82015250565b5f610a57601c83610943565b9150610a6282610a23565b602082019050919050565b5f6020820190508181035f830152610a8481610a4b565b9050919050565b5f610a9582610745565b9150610aa083610745565b9250828202610aae81610745565b91508282048414831517610ac557610ac4610875565b5b5092915050565b7f4e487b71000000000000000000000000000000000000000000000000000000005f52601260045260245ffd5b5f610b0382610745565b9150610b0e83610745565b925082610b1e57610b1d610acc565b5b828204905092915050565b7f496e73756666696369656e742066756e647320666f722072657061796d656e745f8201527f2e00000000000000000000000000000000000000000000000000000000000000602082015250565b5f610b83602183610943565b9150610b8e82610b29565b604082019050919050565b5f6020820190508181035f830152610bb081610b77565b9050919050565b5f610bc182610745565b9150610bcc83610745565b9250828203905081811115610be457610be3610875565b5b9291505056fea2646970667358221220b83d8cc1e6ed4b2070f2f4123416cb4ea49ccd538f44a5dbe5717f5fd9c64b8264736f6c63430008150033",
  "immutableReferences": {},
  "source": "// SPDX-License-Identifier: MIT\r\npragma solidity ^0.8.0;\r\n\r\ncontract LoanManager {\r\n    struct Loan {\r\n        address borrower;\r\n        uint256 principal;\r\n        uint256 interestRate; // As a percentage\r\n        bool isPaid;\r\n    }\r\n\r\n    mapping(address => uint256) public totalDebt; // Total debt per user\r\n    mapping(uint256 => Loan) public loans; // Loan ID to Loan mapping\r\n    uint256 public loanCount;\r\n\r\n    event LoanRequested(address indexed borrower, uint256 principal, uint256 interestRate);\r\n    event LoanApproved(uint256 indexed loanId);\r\n    event LoanRepaid(address indexed borrower, uint256 amount);\r\n\r\n    function requestLoan(uint256 _principal, uint256 _interestRate) public {\r\n        loans[loanCount] = Loan(msg.sender, _principal, _interestRate, false);\r\n        totalDebt[msg.sender] += _principal; // Update total debt\r\n        emit LoanRequested(msg.sender, _principal, _interestRate);\r\n        loanCount++;\r\n    }\r\n\r\n    function approveLoan(uint256 _loanId) public {\r\n        require(loans[_loanId].borrower != address(0), \"Invalid loan ID.\");\r\n        require(!loans[_loanId].isPaid, \"Loan already paid.\");\r\n        emit LoanApproved(_loanId);\r\n    }\r\n\r\n    function repayLoan(uint256 _loanId) public payable {\r\n        Loan storage loan = loans[_loanId];\r\n        require(msg.sender == loan.borrower, \"Only the borrower can repay.\");\r\n        require(!loan.isPaid, \"Loan already paid.\");\r\n        require(msg.value >= loan.principal + (loan.principal * loan.interestRate / 100), \"Insufficient funds for repayment.\");\r\n\r\n        loan.isPaid = true;\r\n        totalDebt[msg.sender] -= loan.principal; // Update total debt\r\n        emit LoanRepaid(msg.sender, loan.principal);\r\n    }\r\n}\r\n",
  "sourcePath": "C:\\Users\\xloyi\\Documents\\projects\\campus_coin\\blockchain\\contracts\\migrations.sol",
  "compiler": {
    "name": "solc",
    "version": "0.8.21+commit.d9974bed.Emscripten.clang"
  },
  "schemaVersion": "3.4.16",
  "updatedAt": "2024-10-03T09:28:30.868Z",
  "devdoc": {
    "kind": "dev",
    "methods": {},
    "version": 1
  },
  "userdoc": {
    "kind": "user",
    "methods": {},
    "version": 1
  }
}