{
  "contractName": "PaymentsAndLending",
  "abi": [
    {
      "inputs": [],
      "stateMutability": "nonpayable",
      "type": "constructor"
    },
    {
      "anonymous": false,
      "inputs": [
        {
          "indexed": true,
          "internalType": "address",
          "name": "user",
          "type": "address"
        },
        {
          "indexed": false,
          "internalType": "uint256",
          "name": "amountPaid",
          "type": "uint256"
        }
      ],
      "name": "FundsDistributed",
      "type": "event"
    },
    {
      "anonymous": false,
      "inputs": [
        {
          "indexed": false,
          "internalType": "uint256",
          "name": "loanId",
          "type": "uint256"
        },
        {
          "indexed": true,
          "internalType": "address",
          "name": "borrower",
          "type": "address"
        },
        {
          "indexed": false,
          "internalType": "uint256",
          "name": "amount",
          "type": "uint256"
        }
      ],
      "name": "FundsTransferred",
      "type": "event"
    },
    {
      "anonymous": false,
      "inputs": [
        {
          "indexed": false,
          "internalType": "uint256",
          "name": "loanId",
          "type": "uint256"
        },
        {
          "indexed": true,
          "internalType": "address",
          "name": "lender",
          "type": "address"
        },
        {
          "indexed": false,
          "internalType": "uint256",
          "name": "amount",
          "type": "uint256"
        },
        {
          "indexed": false,
          "internalType": "uint256",
          "name": "interestRate",
          "type": "uint256"
        }
      ],
      "name": "LoanMatched",
      "type": "event"
    },
    {
      "anonymous": false,
      "inputs": [
        {
          "indexed": false,
          "internalType": "uint256",
          "name": "loanId",
          "type": "uint256"
        },
        {
          "indexed": true,
          "internalType": "address",
          "name": "borrower",
          "type": "address"
        },
        {
          "indexed": false,
          "internalType": "uint256",
          "name": "amount",
          "type": "uint256"
        },
        {
          "indexed": false,
          "internalType": "uint256",
          "name": "interestRate",
          "type": "uint256"
        }
      ],
      "name": "LoanRequested",
      "type": "event"
    },
    {
      "anonymous": false,
      "inputs": [
        {
          "indexed": true,
          "internalType": "address",
          "name": "user",
          "type": "address"
        }
      ],
      "name": "UserAdded",
      "type": "event"
    },
    {
      "inputs": [],
      "name": "admin",
      "outputs": [
        {
          "internalType": "address",
          "name": "",
          "type": "address"
        }
      ],
      "stateMutability": "view",
      "type": "function",
      "constant": true
    },
    {
      "inputs": [],
      "name": "gasFeePercentage",
      "outputs": [
        {
          "internalType": "uint256",
          "name": "",
          "type": "uint256"
        }
      ],
      "stateMutability": "view",
      "type": "function",
      "constant": true
    },
    {
      "inputs": [],
      "name": "loanCount",
      "outputs": [
        {
          "internalType": "uint256",
          "name": "",
          "type": "uint256"
        }
      ],
      "stateMutability": "view",
      "type": "function",
      "constant": true
    },
    {
      "inputs": [
        {
          "internalType": "uint256",
          "name": "",
          "type": "uint256"
        }
      ],
      "name": "loans",
      "outputs": [
        {
          "internalType": "uint256",
          "name": "amount",
          "type": "uint256"
        },
        {
          "internalType": "uint256",
          "name": "interestRate",
          "type": "uint256"
        },
        {
          "internalType": "address",
          "name": "borrower",
          "type": "address"
        },
        {
          "internalType": "bool",
          "name": "funded",
          "type": "bool"
        },
        {
          "internalType": "uint256",
          "name": "totalFunded",
          "type": "uint256"
        }
      ],
      "stateMutability": "view",
      "type": "function",
      "constant": true
    },
    {
      "inputs": [
        {
          "internalType": "address",
          "name": "",
          "type": "address"
        }
      ],
      "name": "userCredit",
      "outputs": [
        {
          "internalType": "int256",
          "name": "",
          "type": "int256"
        }
      ],
      "stateMutability": "view",
      "type": "function",
      "constant": true
    },
    {
      "inputs": [
        {
          "internalType": "uint256",
          "name": "",
          "type": "uint256"
        }
      ],
      "name": "users",
      "outputs": [
        {
          "internalType": "address",
          "name": "",
          "type": "address"
        }
      ],
      "stateMutability": "view",
      "type": "function",
      "constant": true
    },
    {
      "inputs": [
        {
          "internalType": "address",
          "name": "user",
          "type": "address"
        }
      ],
      "name": "addUser",
      "outputs": [],
      "stateMutability": "nonpayable",
      "type": "function"
    },
    {
      "inputs": [
        {
          "internalType": "uint256",
          "name": "amount",
          "type": "uint256"
        },
        {
          "internalType": "uint256",
          "name": "interestRate",
          "type": "uint256"
        }
      ],
      "name": "requestLoan",
      "outputs": [],
      "stateMutability": "nonpayable",
      "type": "function"
    },
    {
      "inputs": [
        {
          "internalType": "uint256",
          "name": "loanId",
          "type": "uint256"
        }
      ],
      "name": "lend",
      "outputs": [],
      "stateMutability": "payable",
      "type": "function",
      "payable": true
    },
    {
      "inputs": [],
      "name": "getActiveLoans",
      "outputs": [
        {
          "components": [
            {
              "internalType": "uint256",
              "name": "amount",
              "type": "uint256"
            },
            {
              "internalType": "uint256",
              "name": "interestRate",
              "type": "uint256"
            },
            {
              "internalType": "address",
              "name": "borrower",
              "type": "address"
            },
            {
              "internalType": "bool",
              "name": "funded",
              "type": "bool"
            },
            {
              "internalType": "uint256",
              "name": "totalFunded",
              "type": "uint256"
            }
          ],
          "internalType": "struct PaymentsAndLending.Loan[]",
          "name": "",
          "type": "tuple[]"
        }
      ],
      "stateMutability": "view",
      "type": "function",
      "constant": true
    },
    {
      "inputs": [],
      "name": "payUsers",
      "outputs": [],
      "stateMutability": "nonpayable",
      "type": "function"
    }
  ],
  "bytecode": "0x6080604052600260045534801561001557600080fd5b5033600560006101000a81548173ffffffffffffffffffffffffffffffffffffffff021916908373ffffffffffffffffffffffffffffffffffffffff160217905550611a07806100666000396000f3fe60806040526004361061009c5760003560e01c8063a6aa57ce11610064578063a6aa57ce14610186578063aa452fa6146101a2578063c569f442146101cb578063ce63094d146101f6578063e1ec3c6814610221578063f851a440146102625761009c565b80630a9cf460146100a1578063121ed2a7146100b8578063365b98b2146100e35780634191c41714610120578063421b2d8b1461015d575b600080fd5b3480156100ad57600080fd5b506100b661028d565b005b3480156100c457600080fd5b506100cd6104df565b6040516100da919061143b565b60405180910390f35b3480156100ef57600080fd5b5061010a600480360381019061010591906110b4565b61077c565b6040516101179190611420565b60405180910390f35b34801561012c57600080fd5b506101476004803603810190610142919061108b565b6107bb565b604051610154919061145d565b60405180910390f35b34801561016957600080fd5b50610184600480360381019061017f919061108b565b6107d3565b005b6101a0600480360381019061019b91906110b4565b6109d3565b005b3480156101ae57600080fd5b506101c960048036038101906101c491906110dd565b610d14565b005b3480156101d757600080fd5b506101e0610f85565b6040516101ed9190611558565b60405180910390f35b34801561020257600080fd5b5061020b610f8b565b6040516102189190611558565b60405180910390f35b34801561022d57600080fd5b50610248600480360381019061024391906110b4565b610f91565b60405161025995949392919061159c565b60405180910390f35b34801561026e57600080fd5b50610277610ff4565b6040516102849190611420565b60405180910390f35b600560009054906101000a900473ffffffffffffffffffffffffffffffffffffffff1673ffffffffffffffffffffffffffffffffffffffff163373ffffffffffffffffffffffffffffffffffffffff161461031d576040517f08c379a0000000000000000000000000000000000000000000000000000000008152600401610314906114d8565b60405180910390fd5b60005b6003805490508110156104dc57600060038281548110610369577f4e487b7100000000000000000000000000000000000000000000000000000000600052603260045260246000fd5b9060005260206000200160009054906101000a900473ffffffffffffffffffffffffffffffffffffffff1690506000600260008373ffffffffffffffffffffffffffffffffffffffff1673ffffffffffffffffffffffffffffffffffffffff16815260200190815260200160002054678ac7230489e800006103eb9190611704565b90506000600260008473ffffffffffffffffffffffffffffffffffffffff1673ffffffffffffffffffffffffffffffffffffffff168152602001908152602001600020819055508173ffffffffffffffffffffffffffffffffffffffff166108fc829081150290604051600060405180830381858888f19350505050158015610478573d6000803e3d6000fd5b508173ffffffffffffffffffffffffffffffffffffffff167f26536799ace2c3dbe12e638ec3ade6b4173dcf1289be0a58d51a5003015649bd826040516104bf9190611558565b60405180910390a2505080806104d4906118cb565b915050610320565b50565b6060600080600190505b60015481116105725760008082815260200190815260200160002060020160149054906101000a900460ff1615801561054b57506000808281526020019081526020016000206000015460008083815260200190815260200160002060030154105b1561055f57818061055b906118cb565b9250505b808061056a906118cb565b9150506104e9565b5060008167ffffffffffffffff8111156105b5577f4e487b7100000000000000000000000000000000000000000000000000000000600052604160045260246000fd5b6040519080825280602002602001820160405280156105ee57816020015b6105db61101a565b8152602001906001900390816105d35790505b509050600080600190505b60015481116107725760008082815260200190815260200160002060020160149054906101000a900460ff1615801561065b57506000808281526020019081526020016000206000015460008083815260200190815260200160002060030154105b1561075f576000808281526020019081526020016000206040518060a001604052908160008201548152602001600182015481526020016002820160009054906101000a900473ffffffffffffffffffffffffffffffffffffffff1673ffffffffffffffffffffffffffffffffffffffff1673ffffffffffffffffffffffffffffffffffffffff1681526020016002820160149054906101000a900460ff16151515158152602001600382015481525050838381518110610745577f4e487b7100000000000000000000000000000000000000000000000000000000600052603260045260246000fd5b6020026020010181905250818061075b906118cb565b9250505b808061076a906118cb565b9150506105f9565b5081935050505090565b6003818154811061078c57600080fd5b906000526020600020016000915054906101000a900473ffffffffffffffffffffffffffffffffffffffff1681565b60026020528060005260406000206000915090505481565b600560009054906101000a900473ffffffffffffffffffffffffffffffffffffffff1673ffffffffffffffffffffffffffffffffffffffff163373ffffffffffffffffffffffffffffffffffffffff1614610863576040517f08c379a000000000000000000000000000000000000000000000000000000000815260040161085a906114d8565b60405180910390fd5b6000600260008373ffffffffffffffffffffffffffffffffffffffff1673ffffffffffffffffffffffffffffffffffffffff16815260200190815260200160002054146108e5576040517f08c379a00000000000000000000000000000000000000000000000000000000081526004016108dc906114f8565b60405180910390fd5b6000600260008373ffffffffffffffffffffffffffffffffffffffff1673ffffffffffffffffffffffffffffffffffffffff168152602001908152602001600020819055506003819080600181540180825580915050600190039060005260206000200160009091909190916101000a81548173ffffffffffffffffffffffffffffffffffffffff021916908373ffffffffffffffffffffffffffffffffffffffff1602179055508073ffffffffffffffffffffffffffffffffffffffff167f19ef9a4877199f89440a26acb26895ec02ed86f2df1aeaa90dc18041b892f71f60405160405180910390a250565b600080600083815260200190815260200160002090508060020160149054906101000a900460ff1615610a3b576040517f08c379a0000000000000000000000000000000000000000000000000000000008152600401610a3290611478565b60405180910390fd5b8060000154816003015410610a85576040517f08c379a0000000000000000000000000000000000000000000000000000000008152600401610a7c90611498565b60405180910390fd5b6000349050600060646004548460000154610aa0919061178b565b610aaa919061175a565b8360000154610ab99190611704565b905080821015610afe576040517f08c379a0000000000000000000000000000000000000000000000000000000008152600401610af590611518565b60405180910390fd5b8260020160009054906101000a900473ffffffffffffffffffffffffffffffffffffffff1673ffffffffffffffffffffffffffffffffffffffff166108fc84600001549081150290604051600060405180830381858888f19350505050158015610b6c573d6000803e3d6000fd5b508260000154836003016000828254610b859190611704565b925050819055508260000154836003015410610bb95760018360020160146101000a81548160ff0219169083151502179055505b606483600101548460000154610bcf919061178b565b610bd9919061175a565b8360000154610be89190611670565b600260003373ffffffffffffffffffffffffffffffffffffffff1673ffffffffffffffffffffffffffffffffffffffff1681526020019081526020016000206000828254610c369190611670565b925050819055508260020160009054906101000a900473ffffffffffffffffffffffffffffffffffffffff1673ffffffffffffffffffffffffffffffffffffffff167fe90ae330e5aefc2a73ddff0dd88bcaf8f4a0629d6553a2a85b22cac3d5f4a19e858560000154604051610cad929190611573565b60405180910390a23373ffffffffffffffffffffffffffffffffffffffff167efbdc60561f3a3d0be3d5290c4cbf6fa9e1e7aa0633a5d1b571a111e66401628585600001548660010154604051610d06939291906115ef565b60405180910390a250505050565b60008211610d57576040517f08c379a0000000000000000000000000000000000000000000000000000000008152600401610d4e906114b8565b60405180910390fd5b600f8110158015610d69575060198111155b8015610d8157506000600582610d7f9190611914565b145b610dc0576040517f08c379a0000000000000000000000000000000000000000000000000000000008152600401610db790611538565b60405180910390fd5b60016000815480929190610dd3906118cb565b91905055506040518060a001604052808381526020018281526020013373ffffffffffffffffffffffffffffffffffffffff16815260200160001515815260200160008152506000806001548152602001908152602001600020600082015181600001556020820151816001015560408201518160020160006101000a81548173ffffffffffffffffffffffffffffffffffffffff021916908373ffffffffffffffffffffffffffffffffffffffff16021790555060608201518160020160146101000a81548160ff0219169083151502179055506080820151816003015590505060648183610ec3919061178b565b610ecd919061175a565b82610ed89190611670565b600260003373ffffffffffffffffffffffffffffffffffffffff1673ffffffffffffffffffffffffffffffffffffffff1681526020019081526020016000206000828254610f2691906117e5565b925050819055503373ffffffffffffffffffffffffffffffffffffffff167f68595dbe887ae7f496f2c88735019a8918919a1decfdee6bdb460480ab87decb6001548484604051610f79939291906115ef565b60405180910390a25050565b60045481565b60015481565b60006020528060005260406000206000915090508060000154908060010154908060020160009054906101000a900473ffffffffffffffffffffffffffffffffffffffff16908060020160149054906101000a900460ff16908060030154905085565b600560009054906101000a900473ffffffffffffffffffffffffffffffffffffffff1681565b6040518060a001604052806000815260200160008152602001600073ffffffffffffffffffffffffffffffffffffffff168152602001600015158152602001600081525090565b600081359050611070816119a3565b92915050565b600081359050611085816119ba565b92915050565b60006020828403121561109d57600080fd5b60006110ab84828501611061565b91505092915050565b6000602082840312156110c657600080fd5b60006110d484828501611076565b91505092915050565b600080604083850312156110f057600080fd5b60006110fe85828601611076565b925050602061110f85828601611076565b9150509250929050565b6000611125838361139a565b60a08301905092915050565b61113a81611879565b82525050565b61114981611879565b82525050565b600061115a82611636565b611164818561164e565b935061116f83611626565b8060005b838110156111a05781516111878882611119565b975061119283611641565b925050600181019050611173565b5085935050505092915050565b6111b68161188b565b82525050565b6111c58161188b565b82525050565b6111d481611897565b82525050565b60006111e760138361165f565b91507f4c6f616e20616c72656164792066756e646564000000000000000000000000006000830152602082019050919050565b600061122760118361165f565b91507f4c6f616e2066756c6c792066756e6465640000000000000000000000000000006000830152602082019050919050565b6000611267601d8361165f565b91507f416d6f756e74206d7573742062652067726561746572207468616e20300000006000830152602082019050919050565b60006112a7600c8361165f565b91507f4e6f7420616e2061646d696e00000000000000000000000000000000000000006000830152602082019050919050565b60006112e760138361165f565b91507f5573657220616c726561647920657869737473000000000000000000000000006000830152602082019050919050565b600061132760188361165f565b91507f496e73756666696369656e7420616d6f756e742073656e7400000000000000006000830152602082019050919050565b600061136760158361165f565b91507f496e76616c696420696e746572657374207261746500000000000000000000006000830152602082019050919050565b60a0820160008201516113b06000850182611402565b5060208201516113c36020850182611402565b5060408201516113d66040850182611131565b5060608201516113e960608501826111ad565b5060808201516113fc6080850182611402565b50505050565b61140b816118c1565b82525050565b61141a816118c1565b82525050565b60006020820190506114356000830184611140565b92915050565b60006020820190508181036000830152611455818461114f565b905092915050565b600060208201905061147260008301846111cb565b92915050565b60006020820190508181036000830152611491816111da565b9050919050565b600060208201905081810360008301526114b18161121a565b9050919050565b600060208201905081810360008301526114d18161125a565b9050919050565b600060208201905081810360008301526114f18161129a565b9050919050565b60006020820190508181036000830152611511816112da565b9050919050565b600060208201905081810360008301526115318161131a565b9050919050565b600060208201905081810360008301526115518161135a565b9050919050565b600060208201905061156d6000830184611411565b92915050565b60006040820190506115886000830185611411565b6115956020830184611411565b9392505050565b600060a0820190506115b16000830188611411565b6115be6020830187611411565b6115cb6040830186611140565b6115d860608301856111bc565b6115e56080830184611411565b9695505050505050565b60006060820190506116046000830186611411565b6116116020830185611411565b61161e6040830184611411565b949350505050565b6000819050602082019050919050565b600081519050919050565b6000602082019050919050565b600082825260208201905092915050565b600082825260208201905092915050565b600061167b82611897565b915061168683611897565b9250817f7fffffffffffffffffffffffffffffffffffffffffffffffffffffffffffffff038313600083121516156116c1576116c0611945565b5b817f80000000000000000000000000000000000000000000000000000000000000000383126000831216156116f9576116f8611945565b5b828201905092915050565b600061170f826118c1565b915061171a836118c1565b9250827fffffffffffffffffffffffffffffffffffffffffffffffffffffffffffffffff0382111561174f5761174e611945565b5b828201905092915050565b6000611765826118c1565b9150611770836118c1565b9250826117805761177f611974565b5b828204905092915050565b6000611796826118c1565b91506117a1836118c1565b9250817fffffffffffffffffffffffffffffffffffffffffffffffffffffffffffffffff04831182151516156117da576117d9611945565b5b828202905092915050565b60006117f082611897565b91506117fb83611897565b9250827f80000000000000000000000000000000000000000000000000000000000000000182126000841215161561183657611835611945565b5b827f7fffffffffffffffffffffffffffffffffffffffffffffffffffffffffffffff01821360008412161561186e5761186d611945565b5b828203905092915050565b6000611884826118a1565b9050919050565b60008115159050919050565b6000819050919050565b600073ffffffffffffffffffffffffffffffffffffffff82169050919050565b6000819050919050565b60006118d6826118c1565b91507fffffffffffffffffffffffffffffffffffffffffffffffffffffffffffffffff82141561190957611908611945565b5b600182019050919050565b600061191f826118c1565b915061192a836118c1565b92508261193a57611939611974565b5b828206905092915050565b7f4e487b7100000000000000000000000000000000000000000000000000000000600052601160045260246000fd5b7f4e487b7100000000000000000000000000000000000000000000000000000000600052601260045260246000fd5b6119ac81611879565b81146119b757600080fd5b50565b6119c3816118c1565b81146119ce57600080fd5b5056fea264697066735822122023b23f36529f3c956cd6acf006766646b8a9ddf4d5f75ad50e6f28d9562c9c5464736f6c63430008000033",
  "immutableReferences": {},
  "source": "// SPDX-License-Identifier: MIT\r\npragma solidity ^0.8.0;\r\n\r\ncontract PaymentsAndLending {\r\n    struct Loan {\r\n        uint256 amount;\r\n        uint256 interestRate;\r\n        address borrower;\r\n        bool funded;\r\n        uint256 totalFunded;\r\n    }\r\n\r\n    mapping(uint256 => Loan) public loans;\r\n    uint256 public loanCount;\r\n\r\n    mapping(address => int256) public userCredit; // Maps user address to their credit score\r\n    address[] public users;\r\n\r\n    uint256 public gasFeePercentage = 2; // Percentage to account for gas fees\r\n    \r\n    address public admin;\r\n\r\n    event LoanRequested(uint256 loanId, address indexed borrower, uint256 amount, uint256 interestRate);\r\n    event LoanMatched(uint256 loanId, address indexed lender, uint256 amount, uint256 interestRate);\r\n    event FundsTransferred(uint256 loanId, address indexed borrower, uint256 amount);\r\n    event UserAdded(address indexed user);\r\n    event FundsDistributed(address indexed user, uint256 amountPaid);\r\n\r\n    modifier onlyAdmin() {\r\n        require(msg.sender == admin, \"Not an admin\");\r\n        _;\r\n    }\r\n\r\n    constructor() {\r\n        admin = msg.sender;\r\n    }\r\n\r\n    function addUser(address user) external onlyAdmin {\r\n        require(userCredit[user] == 0, \"User already exists\");\r\n        userCredit[user] = 0;\r\n        users.push(user);\r\n        emit UserAdded(user);\r\n    }\r\n\r\n    function requestLoan(uint256 amount, uint256 interestRate) external {\r\n        require(amount > 0, \"Amount must be greater than 0\");\r\n        require(interestRate >= 15 && interestRate <= 25 && (interestRate % 5 == 0), \"Invalid interest rate\");\r\n\r\n        loanCount++;\r\n        loans[loanCount] = Loan(amount, interestRate, msg.sender, false, 0);\r\n        \r\n        userCredit[msg.sender] -= int256(amount) + int256((amount * interestRate) / 100);\r\n        \r\n        emit LoanRequested(loanCount, msg.sender, amount, interestRate);\r\n    }\r\n\r\n    function lend(uint256 loanId) external payable {\r\n        Loan storage loan = loans[loanId];\r\n        \r\n        require(!loan.funded, \"Loan already funded\");\r\n        require(loan.totalFunded < loan.amount, \"Loan fully funded\");\r\n        \r\n        uint256 amountToLend = msg.value;\r\n        uint256 expectedAmount = loan.amount + (loan.amount * gasFeePercentage) / 100;\r\n        require(amountToLend >= expectedAmount, \"Insufficient amount sent\");\r\n\r\n        payable(loan.borrower).transfer(loan.amount);\r\n        loan.totalFunded += loan.amount;\r\n        if (loan.totalFunded >= loan.amount) {\r\n            loan.funded = true;\r\n        }\r\n\r\n        userCredit[msg.sender] += int256(loan.amount) + int256((loan.amount * loan.interestRate) / 100);\r\n        \r\n        emit FundsTransferred(loanId, loan.borrower, loan.amount);\r\n        emit LoanMatched(loanId, msg.sender, loan.amount, loan.interestRate);\r\n    }\r\n\r\n   function getActiveLoans() external view returns (Loan[] memory) {\r\n    uint256 activeLoanCount = 0;\r\n    \r\n    // First, count the active loans to determine the size of the array\r\n    for (uint256 i = 1; i <= loanCount; i++) {\r\n        if (!loans[i].funded && loans[i].totalFunded < loans[i].amount) {\r\n            activeLoanCount++;\r\n        }\r\n    }\r\n\r\n    // Create an array with the exact size needed for active loans\r\n    Loan[] memory activeLoans = new Loan[](activeLoanCount);\r\n    uint256 index = 0;\r\n\r\n    for (uint256 i = 1; i <= loanCount; i++) {\r\n        if (!loans[i].funded && loans[i].totalFunded < loans[i].amount) {\r\n            activeLoans[index] = loans[i];\r\n            index++;\r\n        }\r\n    }\r\n\r\n    return activeLoans;\r\n}\r\n\r\n\r\n    function payUsers() external onlyAdmin {\r\n        for (uint256 i = 0; i < users.length; i++) {\r\n            address user = users[i];\r\n            uint256 amountToPay = 10 ether + uint256(userCredit[user]);\r\n            userCredit[user] = 0;\r\n            payable(user).transfer(amountToPay);\r\n            emit FundsDistributed(user, amountToPay);\r\n        }\r\n    }\r\n}\r\n",
  "sourcePath": "C:\\Users\\xloyi\\documents\\projects\\campus_coin\\contracts\\PaymentsAndLending.sol",
  "compiler": {
    "name": "solc",
    "version": "0.8.0+commit.c7dfd78e.Emscripten.clang"
  },
  "schemaVersion": "3.4.16",
  "updatedAt": "2024-10-29T12:10:45.254Z",
  "networkType": "ethereum",
  "devdoc": {
    "kind": "dev",
    "methods": {},
    "version": 1
  },
  "userdoc": {
    "kind": "user",
    "methods": {},
    "version": 1
  }
}